{
  "contractName": "SendEther",
  "abi": [
    {
      "constant": false,
      "inputs": [
        {
          "name": "_to",
          "type": "address"
        },
        {
          "name": "_description",
          "type": "string"
        }
      ],
      "name": "transfer",
      "outputs": [
        {
          "name": "",
          "type": "bool"
        }
      ],
      "payable": true,
      "type": "function"
    },
    {
      "payable": false,
      "type": "fallback"
    },
    {
      "anonymous": false,
      "inputs": [
        {
          "indexed": false,
          "name": "from",
          "type": "address"
        },
        {
          "indexed": false,
          "name": "to",
          "type": "address"
        },
        {
          "indexed": false,
          "name": "value",
          "type": "uint256"
        },
        {
          "indexed": false,
          "name": "description",
          "type": "string"
        }
      ],
      "name": "LogSendEther",
      "type": "event"
    }
  ],
  "bytecode": "0x6060604052341561000f57600080fd5b5b6102078061001f6000396000f3006060604052361561003e5763ffffffff7c0100000000000000000000000000000000000000000000000000000000600035041663098866498114610051575b341561004957600080fd5b5b600080fd5b005b6100b26004803573ffffffffffffffffffffffffffffffffffffffff169060446024803590810190830135806020601f820181900481020160405190810160405281815292919060208401838380828437509496506100c695505050505050565b604051901515815260200160405180910390f35b600073ffffffffffffffffffffffffffffffffffffffff83163480156108fc0290604051600060405180830381858888f19350505050151561010757600080fd5b7fa8da2a10447235381d4a8921c260b89c83b471b8aff2127abc1d434348812e713384348560405173ffffffffffffffffffffffffffffffffffffffff8086168252841660208201526040810183905260806060820181815290820183818151815260200191508051906020019080838360005b838110156101945780820151818401525b60200161017b565b50505050905090810190601f1680156101c15780820380516001836020036101000a031916815260200191505b509550505050505060405180910390a15060015b929150505600a165627a7a72305820ea9c23158e24473d3b01cd6c379079fee2d52b2415ded2adba42238486f9148f0029",
  "source": "pragma solidity ^0.4.13;\n\n/**\n * @title SendEther\n * @dev A Contract that wraps the native transfer function and logs an event.\n */\n\ncontract SendEther {\n\n    event LogSendEther(\n      address from,\n      address to,\n      uint value,\n      string description\n    );\n\n    // If someone accidentally sends ether to this contract, revert;\n    function () {\n        revert();\n    }\n\n    /**\n     * @dev Transfer ether to address _to, providing a description\n     * The only difference with sending ETH directly is that the action is logged\n     * @param _to recipient of the ETH\n     * @param _description  A description to log\n     */\n    function transfer(address _to, string _description) payable returns(bool)  {\n       _to.transfer(msg.value);\n       LogSendEther(msg.sender, _to, msg.value, _description);\n       return true;\n    }\n\n}\n",
  "sourcePath": "/media/data/projects/bossanova/paratii-contracts/contracts/paratii/SendEther.sol",
  "schemaVersion": "1.0.0",
  "updatedAt": "2017-09-19T09:32:40.903Z"
}