{
  "contractName": "ParatiiToken",
  "abi": [
    {
      "constant": true,
      "inputs": [],
      "name": "name",
      "outputs": [
        {
          "name": "",
          "type": "string"
        }
      ],
      "payable": false,
      "type": "function"
    },
    {
      "constant": false,
      "inputs": [
        {
          "name": "_spender",
          "type": "address"
        },
        {
          "name": "_value",
          "type": "uint256"
        }
      ],
      "name": "approve",
      "outputs": [
        {
          "name": "",
          "type": "bool"
        }
      ],
      "payable": false,
      "type": "function"
    },
    {
      "constant": true,
      "inputs": [],
      "name": "totalSupply",
      "outputs": [
        {
          "name": "",
          "type": "uint256"
        }
      ],
      "payable": false,
      "type": "function"
    },
    {
      "constant": false,
      "inputs": [
        {
          "name": "_from",
          "type": "address"
        },
        {
          "name": "_to",
          "type": "address"
        },
        {
          "name": "_value",
          "type": "uint256"
        }
      ],
      "name": "transferFrom",
      "outputs": [
        {
          "name": "",
          "type": "bool"
        }
      ],
      "payable": false,
      "type": "function"
    },
    {
      "constant": true,
      "inputs": [],
      "name": "INITIAL_SUPPLY",
      "outputs": [
        {
          "name": "",
          "type": "uint256"
        }
      ],
      "payable": false,
      "type": "function"
    },
    {
      "constant": true,
      "inputs": [],
      "name": "decimals",
      "outputs": [
        {
          "name": "",
          "type": "uint256"
        }
      ],
      "payable": false,
      "type": "function"
    },
    {
      "constant": true,
      "inputs": [
        {
          "name": "_owner",
          "type": "address"
        }
      ],
      "name": "balanceOf",
      "outputs": [
        {
          "name": "balance",
          "type": "uint256"
        }
      ],
      "payable": false,
      "type": "function"
    },
    {
      "constant": true,
      "inputs": [],
      "name": "symbol",
      "outputs": [
        {
          "name": "",
          "type": "string"
        }
      ],
      "payable": false,
      "type": "function"
    },
    {
      "constant": false,
      "inputs": [
        {
          "name": "_to",
          "type": "address"
        },
        {
          "name": "_value",
          "type": "uint256"
        }
      ],
      "name": "transfer",
      "outputs": [
        {
          "name": "",
          "type": "bool"
        }
      ],
      "payable": false,
      "type": "function"
    },
    {
      "constant": true,
      "inputs": [
        {
          "name": "_owner",
          "type": "address"
        },
        {
          "name": "_spender",
          "type": "address"
        }
      ],
      "name": "allowance",
      "outputs": [
        {
          "name": "remaining",
          "type": "uint256"
        }
      ],
      "payable": false,
      "type": "function"
    },
    {
      "inputs": [],
      "payable": false,
      "type": "constructor"
    },
    {
      "anonymous": false,
      "inputs": [
        {
          "indexed": true,
          "name": "owner",
          "type": "address"
        },
        {
          "indexed": true,
          "name": "spender",
          "type": "address"
        },
        {
          "indexed": false,
          "name": "value",
          "type": "uint256"
        }
      ],
      "name": "Approval",
      "type": "event"
    },
    {
      "anonymous": false,
      "inputs": [
        {
          "indexed": true,
          "name": "from",
          "type": "address"
        },
        {
          "indexed": true,
          "name": "to",
          "type": "address"
        },
        {
          "indexed": false,
          "name": "value",
          "type": "uint256"
        }
      ],
      "name": "Transfer",
      "type": "event"
    }
  ],
  "bytecode": "0x606060405260408051908101604052600781527f50617261746969000000000000000000000000000000000000000000000000006020820152600390805161004b9291602001906100d8565b5060408051908101604052600381527f5054490000000000000000000000000000000000000000000000000000000000602082015260049080516100939291602001906100d8565b5060126005556a115eec47f6cf7e3500000060065534156100b357600080fd5b5b6006546000818155600160a060020a0333168152600160205260409020555b610178565b828054600181600116156101000203166002900490600052602060002090601f016020900481019282601f1061011957805160ff1916838001178555610146565b82800160010185558215610146579182015b8281111561014657825182559160200191906001019061012b565b5b50610153929150610157565b5090565b61017591905b80821115610153576000815560010161015d565b5090565b90565b6107ae806101876000396000f300606060405236156100a15763ffffffff7c010000000000000000000000000000000000000000000000000000000060003504166306fdde0381146100a6578063095ea7b31461013157806318160ddd1461016757806323b872dd1461018c5780632ff2e9dc146101c8578063313ce567146101ed57806370a082311461021257806395d89b4114610243578063a9059cbb146102ce578063dd62ed3e14610304575b600080fd5b34156100b157600080fd5b6100b961033b565b60405160208082528190810183818151815260200191508051906020019080838360005b838110156100f65780820151818401525b6020016100dd565b50505050905090810190601f1680156101235780820380516001836020036101000a031916815260200191505b509250505060405180910390f35b341561013c57600080fd5b610153600160a060020a03600435166024356103d9565b604051901515815260200160405180910390f35b341561017257600080fd5b61017a610480565b60405190815260200160405180910390f35b341561019757600080fd5b610153600160a060020a0360043581169060243516604435610486565b604051901515815260200160405180910390f35b34156101d357600080fd5b61017a61059b565b60405190815260200160405180910390f35b34156101f857600080fd5b61017a6105a1565b60405190815260200160405180910390f35b341561021d57600080fd5b61017a600160a060020a03600435166105a7565b60405190815260200160405180910390f35b341561024e57600080fd5b6100b96105c6565b60405160208082528190810183818151815260200191508051906020019080838360005b838110156100f65780820151818401525b6020016100dd565b50505050905090810190601f1680156101235780820380516001836020036101000a031916815260200191505b509250505060405180910390f35b34156102d957600080fd5b610153600160a060020a0360043516602435610664565b604051901515815260200160405180910390f35b341561030f57600080fd5b61017a600160a060020a0360043581169060243516610724565b60405190815260200160405180910390f35b60038054600181600116156101000203166002900480601f0160208091040260200160405190810160405280929190818152602001828054600181600116156101000203166002900480156103d15780601f106103a6576101008083540402835291602001916103d1565b820191906000526020600020905b8154815290600101906020018083116103b457829003601f168201915b505050505081565b600081158061040b5750600160a060020a03338116600090815260026020908152604080832093871683529290522054155b151561041657600080fd5b600160a060020a03338116600081815260026020908152604080832094881680845294909152908190208590557f8c5be1e5ebec7d5bd14f71427d1e84f3dd0314c0f7b2291e5b200ac8c7c3b9259085905190815260200160405180910390a35060015b92915050565b60005481565b600160a060020a0380841660009081526002602090815260408083203385168452825280832054938616835260019091528120549091906104cd908463ffffffff61075116565b600160a060020a038086166000908152600160205260408082209390935590871681522054610502908463ffffffff61076b16565b600160a060020a03861660009081526001602052604090205561052b818463ffffffff61076b16565b600160a060020a03808716600081815260026020908152604080832033861684529091529081902093909355908616917fddf252ad1be2c89b69c2b068fc378daa952ba7f163c4a11628f55a4df523b3ef9086905190815260200160405180910390a3600191505b509392505050565b60065481565b60055481565b600160a060020a0381166000908152600160205260409020545b919050565b60048054600181600116156101000203166002900480601f0160208091040260200160405190810160405280929190818152602001828054600181600116156101000203166002900480156103d15780601f106103a6576101008083540402835291602001916103d1565b820191906000526020600020905b8154815290600101906020018083116103b457829003601f168201915b505050505081565b600160a060020a03331660009081526001602052604081205461068d908363ffffffff61076b16565b600160a060020a0333811660009081526001602052604080822093909355908516815220546106c2908363ffffffff61075116565b600160a060020a0380851660008181526001602052604090819020939093559133909116907fddf252ad1be2c89b69c2b068fc378daa952ba7f163c4a11628f55a4df523b3ef9085905190815260200160405180910390a35060015b92915050565b600160a060020a038083166000908152600260209081526040808320938516835292905220545b92915050565b60008282018381101561076057fe5b8091505b5092915050565b60008282111561077757fe5b508082035b929150505600a165627a7a72305820aae6093683b545b028ac5aeb268237018e843833ef9e03bcf97d501d6126a1850029",
  "source": "pragma solidity ^0.4.13;\n\nimport \"zeppelin-solidity/contracts/token/StandardToken.sol\";\n\ncontract ParatiiToken is StandardToken {\n\n    string public name = \"Paratii\";\n    string public symbol = \"PTI\";\n    uint public decimals = 18;\n    uint public INITIAL_SUPPLY = 21000000 * (10**decimals);\n\n    function ParatiiToken() {\n        totalSupply = INITIAL_SUPPLY;\n        balances[msg.sender] = INITIAL_SUPPLY;\n    }\n}\n",
  "sourcePath": "/media/data/projects/bossanova/paratii-contracts/contracts/paratii/ParatiiToken.sol",
  "schemaVersion": "1.0.0",
  "updatedAt": "2017-09-19T10:39:17.065Z"
}