{
  "contractName": "ParatiiAvatar",
  "abi": [
    {
      "constant": false,
      "inputs": [
        {
          "name": "_from",
          "type": "address"
        },
        {
          "name": "_to",
          "type": "address"
        },
        {
          "name": "_value",
          "type": "uint256"
        }
      ],
      "name": "transferFrom",
      "outputs": [
        {
          "name": "",
          "type": "bool"
        }
      ],
      "payable": false,
      "type": "function"
    },
    {
      "constant": true,
      "inputs": [
        {
          "name": "",
          "type": "uint256"
        }
      ],
      "name": "whitelist",
      "outputs": [
        {
          "name": "",
          "type": "address"
        }
      ],
      "payable": false,
      "type": "function"
    },
    {
      "constant": false,
      "inputs": [
        {
          "name": "_address",
          "type": "address"
        }
      ],
      "name": "removeFromWhitelist",
      "outputs": [],
      "payable": false,
      "type": "function"
    },
    {
      "constant": true,
      "inputs": [],
      "name": "owner",
      "outputs": [
        {
          "name": "",
          "type": "address"
        }
      ],
      "payable": false,
      "type": "function"
    },
    {
      "constant": false,
      "inputs": [
        {
          "name": "_address",
          "type": "address"
        }
      ],
      "name": "addToWhitelist",
      "outputs": [],
      "payable": false,
      "type": "function"
    },
    {
      "constant": true,
      "inputs": [
        {
          "name": "_address",
          "type": "address"
        }
      ],
      "name": "isOnWhiteList",
      "outputs": [
        {
          "name": "",
          "type": "bool"
        }
      ],
      "payable": false,
      "type": "function"
    },
    {
      "constant": false,
      "inputs": [
        {
          "name": "newOwner",
          "type": "address"
        }
      ],
      "name": "transferOwnership",
      "outputs": [],
      "payable": false,
      "type": "function"
    },
    {
      "inputs": [
        {
          "name": "_paratiiRegistry",
          "type": "address"
        }
      ],
      "payable": false,
      "type": "constructor"
    }
  ],
  "bytecode": "0x6060604052341561000f57600080fd5b6040516020806106ea833981016040528080519150505b5b60008054600160a060020a03191633600160a060020a03161790555b60018054600160a060020a03808416600160a060020a0319928316179092556000805433909316929091169190911790555b505b610664806100866000396000f300606060405236156100675763ffffffff60e060020a60003504166323b872dd811461006c5780637ebd1b30146100a85780638ab1d681146100da5780638da5cb5b146100fb578063e43252d71461012a578063ecb223ab1461014b578063f2fde38b1461017e575b600080fd5b341561007757600080fd5b610094600160a060020a036004358116906024351660443561019f565b604051901515815260200160405180910390f35b34156100b357600080fd5b6100be6004356102ce565b604051600160a060020a03909116815260200160405180910390f35b34156100e557600080fd5b6100f9600160a060020a0360043516610300565b005b341561010657600080fd5b6100be6103b2565b604051600160a060020a03909116815260200160405180910390f35b341561013557600080fd5b6100f9600160a060020a03600435166103c1565b005b341561015657600080fd5b610094600160a060020a0360043516610522565b604051901515815260200160405180910390f35b341561018957600080fd5b6100f9600160a060020a0360043516610595565b005b6001546000908190600160a060020a03166335817773826040516020015260405160e060020a63ffffffff8316028152602060048201819052600c60248301527f50617261746969546f6b656e0000000000000000000000000000000000000000604483015260649091019060405180830381600087803b151561022257600080fd5b6102c65a03f1151561023357600080fd5b5050506040518051915050600160a060020a0381166323b872dd86868660006040516020015260405160e060020a63ffffffff8616028152600160a060020a0393841660048201529190921660248201526044810191909152606401602060405180830381600087803b15156102a857600080fd5b6102c65a03f115156102b957600080fd5b50505060405180519250505b5b509392505050565b60028054829081106102dc57fe5b906000526020600020900160005b915054906101000a9004600160a060020a031681565b6000805433600160a060020a0390811691161461031c57600080fd5b5060005b6002548110156103ac5781600160a060020a031660028281548110151561034357fe5b906000526020600020900160005b9054906101000a9004600160a060020a0316600160a060020a031614156103a357600280548290811061038057fe5b906000526020600020900160005b6101000a815490600160a060020a0302191690555b5b600101610320565b5b5b5050565b600054600160a060020a031681565b60008054819033600160a060020a039081169116146103df57600080fd5b505060025460005b60025481101561048c5782600160a060020a031660028281548110151561040a57fe5b906000526020600020900160005b9054906101000a9004600160a060020a0316600160a060020a0316141561043e5761051b565b60028054600091908390811061045057fe5b906000526020600020900160005b9054906101000a9004600160a060020a0316600160a060020a03161415610483578091505b5b6001016103e7565b6002548214156104da5760028054600181016104a883826105ed565b916000526020600020900160005b8154600160a060020a038088166101009390930a928302920219161790555061051b565b826002838154811015156104ea57fe5b906000526020600020900160005b6101000a815481600160a060020a030219169083600160a060020a031602179055505b5b5b505050565b6000805b60025481101561058a5782600160a060020a031660028281548110151561054957fe5b906000526020600020900160005b9054906101000a9004600160a060020a0316600160a060020a03161415610581576001915061058f565b5b600101610526565b600091505b50919050565b60005433600160a060020a039081169116146105b057600080fd5b600160a060020a038116156105e8576000805473ffffffffffffffffffffffffffffffffffffffff1916600160a060020a0383161790555b5b5b50565b81548183558181151161051b5760008381526020902061051b918101908301610617565b5b505050565b61063591905b80821115610631576000815560010161061d565b5090565b905600a165627a7a72305820c82cd9031c76a2c4bb5996e68ae7b2db151657e202961a269f47cd036e83bfd40029",
  "source": "pragma solidity ^0.4.13;\nimport './ParatiiRegistry.sol';\nimport './ParatiiToken.sol';\nimport \"zeppelin-solidity/contracts/ownership/Ownable.sol\";\n/*\n * @dev A contract that holds PTI for the paratii DAO\n *\n */\n\ncontract ParatiiAvatar is Ownable {\n    ParatiiRegistry paratiiRegistry;\n\n    address[] public whitelist;\n\n    modifier onlyWhitelist() {\n      _;\n    }\n\n    function ParatiiAvatar(ParatiiRegistry _paratiiRegistry) {\n        paratiiRegistry = _paratiiRegistry;\n        owner = msg.sender;\n    }\n\n    function addToWhitelist(address _address) onlyOwner {\n      // check if the address is already known, and if there is a free space in the whitelist\n      uint freeSpace = whitelist.length;\n      for (uint i=0; i < whitelist.length; i++) {\n          if (whitelist[i] == _address) {\n            return;\n          }\n          if (whitelist[i] == address(0)) {\n            freeSpace = i;\n          }\n      }\n      if (freeSpace == whitelist.length){\n          whitelist.push(_address);\n      } else {\n          whitelist[freeSpace] = _address;\n      }\n    }\n\n    function removeFromWhitelist(address _address) onlyOwner {\n      for (uint i=0; i < whitelist.length; i++) {\n          if (whitelist[i] == _address) {\n              delete whitelist[i];\n          }\n      }\n    }\n\n    function isOnWhiteList(address _address) public constant returns(bool) {\n      for (uint i=0; i < whitelist.length; i++) {\n          if (whitelist[i] == _address) {\n              return true;\n          }\n      }\n      return false;\n    }\n\n    function transferFrom(address _from, address _to, uint256 _value) onlyWhitelist returns (bool)   {\n        ParatiiToken token = ParatiiToken(paratiiRegistry.getContract('ParatiiToken'));\n        return token.transferFrom(_from, _to, _value);\n    }\n}\n",
  "sourcePath": "/media/data/projects/bossanova/paratii-contracts/contracts/paratii/ParatiiAvatar.sol",
  "schemaVersion": "1.0.0",
  "updatedAt": "2017-09-19T10:39:17.075Z"
}