{
  "contractName": "ParatiiRegistry",
  "abi": [
    {
      "constant": false,
      "inputs": [
        {
          "name": "_name",
          "type": "string"
        }
      ],
      "name": "unregisterContract",
      "outputs": [],
      "payable": false,
      "type": "function"
    },
    {
      "constant": true,
      "inputs": [
        {
          "name": "_name",
          "type": "string"
        }
      ],
      "name": "getContract",
      "outputs": [
        {
          "name": "",
          "type": "address"
        }
      ],
      "payable": false,
      "type": "function"
    },
    {
      "constant": false,
      "inputs": [
        {
          "name": "_name",
          "type": "string"
        },
        {
          "name": "_address",
          "type": "address"
        }
      ],
      "name": "registerContract",
      "outputs": [],
      "payable": false,
      "type": "function"
    },
    {
      "constant": true,
      "inputs": [],
      "name": "owner",
      "outputs": [
        {
          "name": "",
          "type": "address"
        }
      ],
      "payable": false,
      "type": "function"
    },
    {
      "constant": false,
      "inputs": [
        {
          "name": "_name",
          "type": "string"
        }
      ],
      "name": "unregisterNumber",
      "outputs": [],
      "payable": false,
      "type": "function"
    },
    {
      "constant": false,
      "inputs": [
        {
          "name": "_name",
          "type": "string"
        },
        {
          "name": "_number",
          "type": "uint256"
        }
      ],
      "name": "registerNumber",
      "outputs": [],
      "payable": false,
      "type": "function"
    },
    {
      "constant": true,
      "inputs": [
        {
          "name": "",
          "type": "bytes32"
        }
      ],
      "name": "numbers",
      "outputs": [
        {
          "name": "",
          "type": "uint256"
        }
      ],
      "payable": false,
      "type": "function"
    },
    {
      "constant": true,
      "inputs": [
        {
          "name": "_name",
          "type": "string"
        }
      ],
      "name": "getNumber",
      "outputs": [
        {
          "name": "",
          "type": "uint256"
        }
      ],
      "payable": false,
      "type": "function"
    },
    {
      "constant": true,
      "inputs": [
        {
          "name": "",
          "type": "bytes32"
        }
      ],
      "name": "contracts",
      "outputs": [
        {
          "name": "",
          "type": "address"
        }
      ],
      "payable": false,
      "type": "function"
    },
    {
      "constant": false,
      "inputs": [
        {
          "name": "newOwner",
          "type": "address"
        }
      ],
      "name": "transferOwnership",
      "outputs": [],
      "payable": false,
      "type": "function"
    },
    {
      "inputs": [],
      "payable": false,
      "type": "constructor"
    },
    {
      "anonymous": false,
      "inputs": [
        {
          "indexed": false,
          "name": "_name",
          "type": "string"
        },
        {
          "indexed": false,
          "name": "_address",
          "type": "address"
        }
      ],
      "name": "LogRegisterContract",
      "type": "event"
    },
    {
      "anonymous": false,
      "inputs": [
        {
          "indexed": false,
          "name": "_name",
          "type": "string"
        }
      ],
      "name": "LogUnregisterContract",
      "type": "event"
    },
    {
      "anonymous": false,
      "inputs": [
        {
          "indexed": false,
          "name": "_name",
          "type": "string"
        },
        {
          "indexed": false,
          "name": "_number",
          "type": "uint256"
        }
      ],
      "name": "LogRegisterNumber",
      "type": "event"
    },
    {
      "anonymous": false,
      "inputs": [
        {
          "indexed": false,
          "name": "_name",
          "type": "string"
        }
      ],
      "name": "LogUnregisterNumber",
      "type": "event"
    }
  ],
  "bytecode": "0x6060604052341561000f57600080fd5b5b5b60008054600160a060020a03191633600160a060020a03161790555b60008054600160a060020a03191633600160a060020a03161790555b5b610a5e806100596000396000f300606060405236156100a15763ffffffff7c0100000000000000000000000000000000000000000000000000000000600035041663035e770981146100a657806335817773146100f95780637f3c2c28146101665780638da5cb5b146101c4578063b2632824146101f3578063b36b3eb214610246578063c724982b1461029b578063e8ac013e146102c3578063ec56a37314610326578063f2fde38b14610358575b600080fd5b34156100b157600080fd5b6100f760046024813581810190830135806020601f8201819004810201604051908101604052818152929190602084018383808284375094965061037995505050505050565b005b341561010457600080fd5b61014a60046024813581810190830135806020601f820181900481020160405190810160405281815292919060208401838380828437509496506104c195505050505050565b604051600160a060020a03909116815260200160405180910390f35b341561017157600080fd5b6100f760046024813581810190830135806020601f8201819004810201604051908101604052818152929190602084018383808284375094965050509235600160a060020a03169250610547915050565b005b34156101cf57600080fd5b61014a6106ae565b604051600160a060020a03909116815260200160405180910390f35b34156101fe57600080fd5b6100f760046024813581810190830135806020601f820181900481020160405190810160405281815292919060208401838380828437509496506106bd95505050505050565b005b341561025157600080fd5b6100f760046024813581810190830135806020601f8201819004810201604051908101604052818152929190602084018383808284375094965050933593506107f192505050565b005b34156102a657600080fd5b6102b1600435610930565b60405190815260200160405180910390f35b34156102ce57600080fd5b6102b160046024813581810190830135806020601f8201819004810201604051908101604052818152929190602084018383808284375094965061094295505050505050565b60405190815260200160405180910390f35b341561033157600080fd5b61014a6004356109bf565b604051600160a060020a03909116815260200160405180910390f35b341561036357600080fd5b6100f7600160a060020a03600435166109da565b005b60005433600160a060020a0390811691161461039457600080fd5b60016000826040518082805190602001908083835b602083106103c957805182525b601f1990920191602091820191016103a9565b6001836020036101000a0380198251168184511617909252505050919091019250604091505051908190039020815260208101919091526040908101600020805473ffffffffffffffffffffffffffffffffffffffff191690557f671d917be400334901a4e80259b4be18f42691b726458149da55e5619cae1ca69082905160208082528190810183818151815260200191508051906020019080838360005b838110156104825780820151818401525b602001610469565b50505050905090810190601f1680156104af5780820380516001836020036101000a031916815260200191505b509250505060405180910390a15b5b50565b600060016000836040518082805190602001908083835b602083106104f857805182525b601f1990920191602091820191016104d8565b6001836020036101000a03801982511681845116179092525050509190910192506040915050519081900390208152602081019190915260400160002054600160a060020a031690505b919050565b60005433600160a060020a0390811691161461056257600080fd5b8060016000846040518082805190602001908083835b6020831061059857805182525b601f199092019160209182019101610578565b6001836020036101000a038019825116818451161790925250505091909101925060409150505180910390206000191660001916815260200190815260200160002060006101000a815481600160a060020a030219169083600160a060020a031602179055507fbf439a1ceda3303d2b757e764edbca9c89a0cb82d868be48d9b6449abdadc3728282604051600160a060020a038216602082015260408082528190810184818151815260200191508051906020019080838360005b8381101561066d5780820151818401525b602001610654565b50505050905090810190601f16801561069a5780820380516001836020036101000a031916815260200191505b50935050505060405180910390a15b5b5050565b600054600160a060020a031681565b60005433600160a060020a039081169116146106d857600080fd5b60026000826040518082805190602001908083835b6020831061070d57805182525b601f1990920191602091820191016106ed565b6001836020036101000a0380198251168184511617909252505050919091019250604091505051809103902060001916600019168152602001908152602001600020600090557f0639072a1a8b219a5c47c0c91be6573ac5ea36189329fe854eefe203c9855bcd8160405160208082528190810183818151815260200191508051906020019080838360005b838110156104825780820151818401525b602001610469565b50505050905090810190601f1680156104af5780820380516001836020036101000a031916815260200191505b509250505060405180910390a15b5b50565b60005433600160a060020a0390811691161461080c57600080fd5b8060026000846040518082805190602001908083835b6020831061084257805182525b601f199092019160209182019101610822565b6001836020036101000a0380198251168184511617909252505050919091019250604091505051809103902060001916600019168152602001908152602001600020819055507f9544d187fea923b1c00757bedaff5d5f33edbdcc44b489229352609173a543dd82826040518080602001838152602001828103825284818151815260200191508051906020019080838360005b8381101561066d5780820151818401525b602001610654565b50505050905090810190601f16801561069a5780820380516001836020036101000a031916815260200191505b50935050505060405180910390a15b5b5050565b60026020526000908152604090205481565b600060026000836040518082805190602001908083835b6020831061097957805182525b601f199092019160209182019101610959565b6001836020036101000a0380198251168184511617909252505050919091019250604091505051908190039020815260208101919091526040016000205490505b919050565b600160205260009081526040902054600160a060020a031681565b60005433600160a060020a039081169116146109f557600080fd5b600160a060020a038116156104bd576000805473ffffffffffffffffffffffffffffffffffffffff1916600160a060020a0383161790555b5b5b505600a165627a7a723058205ce91a41b4a892a554f2fa0afd2fd8edf1651dbac91a3c9ccc583afe87e16cff0029",
  "source": "pragma solidity ^0.4.13;\n\nimport \"zeppelin-solidity/contracts/ownership/Ownable.sol\";\n\n/**\n * @dev the ParatiiRegistry contains settings and addresses of contracts for the Partii Ecosystem\n *\n **/\ncontract ParatiiRegistry is Ownable  {\n\n  mapping (bytes32=>address) public contracts;\n  mapping (bytes32=>uint) public numbers;\n\n  event LogRegisterContract(string _name, address _address);\n  event LogUnregisterContract(string _name);\n  event LogRegisterNumber(string _name, uint _number);\n  event LogUnregisterNumber(string _name);\n\n  function ParatiiRegistry() {\n      owner = msg.sender;\n  }\n\n  function registerContract(string _name, address _address) public onlyOwner {\n    contracts[sha3(_name)] = _address;\n    LogRegisterContract(_name, _address);\n  }\n\n  function unregisterContract(string _name) public onlyOwner {\n    delete contracts[sha3(_name)];\n    LogUnregisterContract(_name);\n  }\n  function getContract(string _name) public constant returns(address) {\n    return contracts[sha3(_name)];\n  }\n\n  function registerNumber(string _name, uint _number) public onlyOwner {\n    numbers[sha3(_name)] = _number;\n    LogRegisterNumber(_name, _number);\n  }\n\n  function unregisterNumber(string _name) public onlyOwner {\n    delete numbers[sha3(_name)];\n    LogUnregisterNumber(_name);\n  }\n\n  function getNumber(string _name) public constant returns(uint) {\n    return numbers[sha3(_name)];\n  }\n\n}\n",
  "sourcePath": "/media/data/projects/bossanova/paratii-contracts/contracts/paratii/ParatiiRegistry.sol",
  "schemaVersion": "1.0.0",
  "updatedAt": "2017-09-19T10:39:17.081Z"
}