{
  "contractName": "VideoStore",
  "abi": [
    {
      "constant": false,
      "inputs": [
        {
          "name": "videoId",
          "type": "bytes32"
        }
      ],
      "name": "buyVideo",
      "outputs": [
        {
          "name": "",
          "type": "bool"
        }
      ],
      "payable": false,
      "type": "function"
    },
    {
      "constant": true,
      "inputs": [],
      "name": "owner",
      "outputs": [
        {
          "name": "",
          "type": "address"
        }
      ],
      "payable": false,
      "type": "function"
    },
    {
      "constant": false,
      "inputs": [
        {
          "name": "newOwner",
          "type": "address"
        }
      ],
      "name": "transferOwnership",
      "outputs": [],
      "payable": false,
      "type": "function"
    },
    {
      "inputs": [
        {
          "name": "_paratiiRegistry",
          "type": "address"
        }
      ],
      "payable": false,
      "type": "constructor"
    },
    {
      "payable": false,
      "type": "fallback"
    },
    {
      "anonymous": false,
      "inputs": [
        {
          "indexed": false,
          "name": "videoId",
          "type": "bytes32"
        },
        {
          "indexed": false,
          "name": "buyer",
          "type": "address"
        },
        {
          "indexed": false,
          "name": "price",
          "type": "uint256"
        }
      ],
      "name": "LogBuyVideo",
      "type": "event"
    },
    {
      "anonymous": false,
      "inputs": [
        {
          "indexed": false,
          "name": "_msg",
          "type": "address"
        }
      ],
      "name": "LogAddress",
      "type": "event"
    },
    {
      "anonymous": false,
      "inputs": [
        {
          "indexed": false,
          "name": "_msg",
          "type": "int256"
        }
      ],
      "name": "LogInt",
      "type": "event"
    },
    {
      "anonymous": false,
      "inputs": [
        {
          "indexed": false,
          "name": "_msg",
          "type": "string"
        }
      ],
      "name": "LogString",
      "type": "event"
    },
    {
      "anonymous": false,
      "inputs": [
        {
          "indexed": false,
          "name": "_msg",
          "type": "uint256"
        }
      ],
      "name": "LogUint",
      "type": "event"
    },
    {
      "anonymous": false,
      "inputs": [
        {
          "indexed": false,
          "name": "_msg",
          "type": "bytes"
        }
      ],
      "name": "LogBytes",
      "type": "event"
    },
    {
      "anonymous": false,
      "inputs": [
        {
          "indexed": false,
          "name": "_msg",
          "type": "bytes32"
        }
      ],
      "name": "LogBytes32",
      "type": "event"
    },
    {
      "anonymous": false,
      "inputs": [
        {
          "indexed": false,
          "name": "_msg",
          "type": "bool"
        }
      ],
      "name": "LogBool",
      "type": "event"
    }
  ],
  "bytecode": "0x6060604052341561000f57600080fd5b6040516020806105b3833981016040528080519150505b5b60008054600160a060020a03191633600160a060020a03161790555b60018054600160a060020a031916600160a060020a0383161790555b505b610543806100706000396000f3006060604052361561003b5763ffffffff60e060020a60003504166363a72117811461004e5780638da5cb5b14610078578063f2fde38b146100a7575b341561004657600080fd5b5b600080fd5b005b341561005957600080fd5b6100646004356100c8565b604051901515815260200160405180910390f35b341561008357600080fd5b61008b61040f565b604051600160a060020a03909116815260200160405180910390f35b34156100b257600080fd5b61004c600160a060020a036004351661041e565b005b600154600090819081908190819081908190600160a060020a03166335817773826040516020015260405160e060020a63ffffffff8316028152602060048201819052600d60248301527f566964656f526567697374727900000000000000000000000000000000000000604483015260649091019060405180830381600087803b151561015557600080fd5b6102c65a03f1151561016657600080fd5b5050506040518051600154909750600160a060020a03169050633581777360006040516020015260405160e060020a63ffffffff8316028152602060048201819052600d60248301527f5061726174696941766174617200000000000000000000000000000000000000604483015260649091019060405180830381600087803b15156101f257600080fd5b6102c65a03f1151561020357600080fd5b5050506040518051955050600160a060020a03861663a2d6d3828960006040516040015260405160e060020a63ffffffff841602815260048101919091526024016040805180830381600087803b151561025c57600080fd5b6102c65a03f1151561026d57600080fd5b5050506040518051906020018051905093509350339150670de0b6b3a7640000610295610476565b84028115156102a057fe5b04905084600160a060020a03166323b872dd83878460006040516020015260405160e060020a63ffffffff8616028152600160a060020a0393841660048201529190921660248201526044810191909152606401602060405180830381600087803b151561030d57600080fd5b6102c65a03f1151561031e57600080fd5b50505060405180515050600160a060020a0385166323b872dd838684870360006040516020015260405160e060020a63ffffffff8616028152600160a060020a0393841660048201529190921660248201526044810191909152606401602060405180830381600087803b151561039457600080fd5b6102c65a03f115156103a557600080fd5b50505060405180519050507f97c8305fa4f7b1e57e7f0e30dae4f85993ec5c5ce15a8409754a4994f1c9200f883385604051928352600160a060020a0390911660208301526040808301919091526060909101905180910390a1600196505b505050505050919050565b600054600160a060020a031681565b60005433600160a060020a0390811691161461043957600080fd5b600160a060020a03811615610471576000805473ffffffffffffffffffffffffffffffffffffffff1916600160a060020a0383161790555b5b5b50565b600154600090600160a060020a031663e8ac013e826040516020015260405160e060020a63ffffffff8316028152602060048201819052601c60248301527f566964656f5265646973747269627574696f6e506f6f6c536861726500000000604483015260649091019060405180830381600087803b15156104f757600080fd5b6102c65a03f1151561050857600080fd5b50505060405180519150505b905600a165627a7a72305820ee40c3ba3b7deba68595fa06188f28a91d6232f8868d418de3367d5ff3c3c2850029",
  "source": "pragma solidity ^0.4.13;\n\nimport './ParatiiAvatar.sol';\nimport './ParatiiToken.sol';\nimport './VideoRegistry.sol';\nimport './ParatiiRegistry.sol';\nimport \"../debug/Debug.sol\";\n\n\n/**\n * @title VideoStore\n * @dev A Contract that wraps the native transfer function and logs an event.\n */\n\ncontract VideoStore is Ownable, Debug {\n\n    ParatiiRegistry paratiiRegistry;\n\n    event LogBuyVideo(\n      bytes32 videoId,\n      address buyer,\n      uint price\n    );\n\n    function VideoStore(ParatiiRegistry _paratiiRegistry) {\n      paratiiRegistry = _paratiiRegistry;\n    }\n\n    // If someone accidentally sends ether to this contract, revert;\n    function () {\n        revert();\n    }\n\n    /**\n     * @dev buyVideo buys a video\n     */\n    function buyVideo(bytes32 videoId) public returns(bool)  {\n       // get the info about the video\n       /*LogAddress(ParatiiRegistry.getContract('VideoRegistry'));*/\n       VideoRegistry videoRegistry = VideoRegistry(paratiiRegistry.getContract('VideoRegistry'));\n       ParatiiAvatar paratiiAvatar = ParatiiAvatar(paratiiRegistry.getContract('ParatiiAvatar'));\n       var (owner, price) = videoRegistry.videos(videoId);\n       address buyer = msg.sender;\n       uint paratiiPart = (price * redistributionPoolShare()) / 10 ** 18;\n       paratiiAvatar.transferFrom(buyer, address(paratiiAvatar),  paratiiPart);\n       paratiiAvatar.transferFrom(buyer, address(owner), price - paratiiPart);\n       LogBuyVideo(videoId, msg.sender, price);\n       return true;\n    }\n\n    function redistributionPoolShare() internal returns(uint) {\n        // the \"percentage\" in precision 10**18\n        return paratiiRegistry.getNumber('VideoRedistributionPoolShare');\n    }\n}\n",
  "sourcePath": "/media/data/projects/bossanova/paratii-contracts/contracts/paratii/VideoStore.sol",
  "schemaVersion": "1.0.0",
  "updatedAt": "2017-09-19T10:39:17.087Z"
}