{
  "contractName": "VideoRegistry",
  "abi": [
    {
      "constant": false,
      "inputs": [
        {
          "name": "_hash",
          "type": "bytes32"
        },
        {
          "name": "_owner",
          "type": "address"
        },
        {
          "name": "_price",
          "type": "uint256"
        }
      ],
      "name": "registerVideo",
      "outputs": [],
      "payable": false,
      "type": "function"
    },
    {
      "constant": false,
      "inputs": [
        {
          "name": "_hash",
          "type": "bytes32"
        }
      ],
      "name": "unregisterVideo",
      "outputs": [],
      "payable": false,
      "type": "function"
    },
    {
      "constant": true,
      "inputs": [],
      "name": "owner",
      "outputs": [
        {
          "name": "",
          "type": "address"
        }
      ],
      "payable": false,
      "type": "function"
    },
    {
      "constant": true,
      "inputs": [
        {
          "name": "",
          "type": "bytes32"
        }
      ],
      "name": "videos",
      "outputs": [
        {
          "name": "owner",
          "type": "address"
        },
        {
          "name": "price",
          "type": "uint256"
        }
      ],
      "payable": false,
      "type": "function"
    },
    {
      "constant": false,
      "inputs": [
        {
          "name": "newOwner",
          "type": "address"
        }
      ],
      "name": "transferOwnership",
      "outputs": [],
      "payable": false,
      "type": "function"
    },
    {
      "inputs": [],
      "payable": false,
      "type": "constructor"
    },
    {
      "anonymous": false,
      "inputs": [
        {
          "indexed": false,
          "name": "hash",
          "type": "bytes32"
        },
        {
          "indexed": false,
          "name": "owner",
          "type": "address"
        }
      ],
      "name": "LogRegisterVideo",
      "type": "event"
    },
    {
      "anonymous": false,
      "inputs": [
        {
          "indexed": false,
          "name": "hash",
          "type": "bytes32"
        }
      ],
      "name": "LogUnregisterVideo",
      "type": "event"
    }
  ],
  "bytecode": "0x6060604052341561000f57600080fd5b5b5b60008054600160a060020a03191633600160a060020a03161790555b60008054600160a060020a03191633600160a060020a03161790555b5b610318806100596000396000f300606060405263ffffffff7c01000000000000000000000000000000000000000000000000000000006000350416632b35e36481146100695780634b7f5b86146100905780638da5cb5b146100a8578063a2d6d382146100d7578063f2fde38b1461010f575b600080fd5b341561007457600080fd5b61008e600435600160a060020a0360243516604435610130565b005b341561009b57600080fd5b61008e6004356101da565b005b34156100b357600080fd5b6100bb610260565b604051600160a060020a03909116815260200160405180910390f35b34156100e257600080fd5b6100ed60043561026f565b604051600160a060020a03909216825260208201526040908101905180910390f35b341561011a57600080fd5b61008e600160a060020a0360043516610294565b005b604080519081016040908152600160a060020a0384168252602080830184905260008681526001909152208151815473ffffffffffffffffffffffffffffffffffffffff1916600160a060020a03919091161781556020820151600190910155507f0355ed25feef20e07ab9e63f4803c5f20e860a033cf886c35ef03c6bd92ad3a78383604051918252600160a060020a031660208201526040908101905180910390a15b505050565b60005433600160a060020a039081169116146101f557600080fd5b6000818152600160208190526040808320805473ffffffffffffffffffffffffffffffffffffffff19168155909101919091557fe7dbd6e4cdc7de996be4a9b2e86a595409a78790875eccbb8a8adb9e8d1e0fa09082905190815260200160405180910390a15b5b50565b600054600160a060020a031681565b60016020819052600091825260409091208054910154600160a060020a039091169082565b60005433600160a060020a039081169116146102af57600080fd5b600160a060020a0381161561025c576000805473ffffffffffffffffffffffffffffffffffffffff1916600160a060020a0383161790555b5b5b505600a165627a7a72305820aeb9738428bdbc8ef2184beb5d80da5b7ff97002294587b8c165375cc73195ed0029",
  "source": "pragma solidity ^0.4.13;\n\nimport \"zeppelin-solidity/contracts/ownership/Ownable.sol\";\n\ncontract VideoRegistry is Ownable {\n\n    struct VideoInfo {\n      address owner;\n      uint256 price; // price in PTI-wei\n    }\n\n    mapping (bytes32=>VideoInfo) public videos;\n\n    event LogRegisterVideo(bytes32 hash, address owner);\n    event LogUnregisterVideo(bytes32 hash);\n\n    function VideoRegistry() {\n        owner = msg.sender;\n    }\n\n    function registerVideo(bytes32 _hash, address _owner, uint256 _price) {\n      videos[_hash] =  VideoInfo({\n          owner: _owner,\n          price: _price\n      });\n\n      LogRegisterVideo(_hash, _owner);\n    }\n\n    function unregisterVideo(bytes32 _hash) onlyOwner {\n        delete videos[_hash];\n        LogUnregisterVideo(_hash);\n    }\n}\n",
  "sourcePath": "/media/data/projects/bossanova/paratii-contracts/contracts/paratii/VideoRegistry.sol",
  "schemaVersion": "1.0.0",
  "updatedAt": "2017-09-19T10:39:17.078Z"
}